:100000000040002005010000010100000101000086
:1000100001010000010100000101000000000000DA
:1000200000000000000000000000000001010000CE
:1000300001010000000000000101000001010000BA
:1000400001010000010100000101000001010000A8
:100050000101000001010000010100000101000098
:100060000101000001010000010100000101000088
:100070000101000001010000010100000101000078
:100080000101000001010000010100000101000068
:100090000101000001010000010100000101000058
:1000A0000101000001010000010100000101000048
:1000B000010100000101000001010000000000003A
:1000C000000000000101000001010000010100002A
:1000D0000101000001010000010100000101000018
:1000E000010100000101000001010000000000000A
:1000F00000000000010100000000000001010000FC
:1001000000BFFDE74FF080430122C3F80025704790
:0400000300000100F8
:00000001FF
