:104000008100003C0C43B013F240B0133841C2436E
:104010000202F240CFFF0402C2430A02C2430C0272
:10402000C2431A02C2431C02C2430302F24084FF8D
:104030000502C2430B02C2430D02C2431B02C2432C
:104040001D02C2432202F240BFFF2402C2432A02E1
:10405000C2432C02C2433A02C2433C02C24323027F
:10406000F240BFFF2502C2432B02C2432D02C243CE
:104070003B02C2433D02C2434202F240D0FF44022F
:10408000C2434A02C2434C02C2435A02C2435C02C8
:10409000C2434302F240CFFF4502C2434B02C24338
:1040A0004D02C2435B02C2435D02C2436202F24060
:1040B000F7FF6402C2436A02C2436C02C2437A023F
:1040C000C2437C02C2436302F2436502C2436B02F5
:1040D000C2436D02C2437B02C2437D02824322037C
:1040E000B240BEFF240382432A0382432C030343CE
:1040F0001001B240885A5C011C4230011CC3824C42
:104100003001B0130E40F240A5FF21015C422001B6
:104110007CF0BFFF3CF0FF00C24C20015C4220015C
:104120007CD010003CF0FF00C24C2001034332D091
:0C413000F80003434C43100180003841AC
:02FFFE000040C1
:0400000300004000B9
:00000001FF
